:020000040800F2
:10000000A8040020450100087B1A000879120008A6
:10001000791A0008B1010008191B0008000000004F
:100020000000000000000000000000007F1A00082F
:10003000C1010008000000007D1A0008811A0008B4
:100040005F0100085F0100085F0100085F01000810
:100050005F0100085F0100085F0100085F01000800
:100060005F0100085F0100085F0100085F010008F0
:100070005F0100085F0100085F0100085F010008E0
:100080005F010008B50100085F0100085F0100087A
:100090005F0100085F0100085F0100085F010008C0
:1000A0005F0100085F0100085F0100085F010008B0
:1000B0005F0100085F0100085F0100087D12000871
:1000C0005F0100085F0100085F0100085F01000890
:1000D0005F0100085F0100085F0100085F01000880
:1000E0005F0100085F0100085F0100085F01000870
:1000F0005F0100085F0100085F0100085F01000860
:100100005F0100085F0100085F0100085F0100084F
:100110005F0100085F0100085F0100085F0100083F
:100120005F0100085F0100085F0100085F0100082F
:10013000DFF80CD000F02AF800480047591B0008EF
:10014000A80400200648804706480047FEE7FEE76F
:10015000FEE7FEE7FEE7FEE7FEE7FEE7FEE7FEE777
:10016000D11A000831010008D2B201E000F8012BD9
:10017000491EFBD270470022F6E710B513460A4627
:1001800004461946FFF7F0FF204610BD064C074D08
:1001900006E0E06840F0010394E807009847103457
:1001A000AC42F6D3FFF7C8FF001C0008201C000873
:1001B000FEE70000014800F0A1B800006400002044
:1001C000704770472DE9F05F90F821100024022954
:1001D00003D004218163012485E001680A6822F0CC
:1001E0000E020A6001680A6822F001020A603F4EAE
:1001F0003E4FB215DFF8F4C0DFF8F090DFF8ECA066
:10020000DFF8E8B0DFF8E4E00168783F1301150299
:10021000ACF1640CA9F15009AAF13C0AABF1280B2E
:10022000AEF1140E4FF48018B14227D9B9420ED066
:10023000614512D049451DD0514518D0594518D0B7
:10024000714501D1424615E0294EB14201D101224A
:1002500010E0274E1436B14201D110220AE0244E9C
:100260002836B14206D0224A3C32914201D11A4688
:1002700000E02A461E49091F0A602BE0B94213D04C
:10028000614517D0494522D051451DD059451DD053
:10029000714501D142461AE0B14202D14FF080725D
:1002A00015E0134EB14201D1012210E0104E143678
:1002B000B14201D110220AE00D4E2836B14206D0DB
:1002C0000B4A3C32914201D11A4600E02A460749C6
:1002D00080394A60012180F82110002180F8201027
:1002E000416B01B188472046BDE8F09F8000024085
:1002F0000804024090F82100704700002DE9F05FEB
:10030000C16B0A6801680B68046C4FF0040808FAB6
:1003100004F8844D844E854FDFF814C2DFF8149240
:10032000DFF814A2DFF814B2DFF814E218EA020FC3
:1003300065D05FEA437862D50A68920603D40A68FA
:1003400022F004020A60DFF8F0814FF48062016855
:1003500008F1140813011402414524D9A9420DD013
:10036000B1420FD0B9421AD0614515D0494515D0D8
:10037000514501D1120312E0594501D104220EE08A
:10038000714501D140220AE06D4D1435A94206D0D5
:100390006B4A2832914201D11A4600E02246674951
:1003A000091F0A6029E0A94213D0B14215D0B94211
:1003B00020D061451BD049451BD0514502D14FF497
:1003C000800217E0414502D14FF0806212E05945AA
:1003D00001D104220EE0714501D140220AE0584DBE
:1003E0001435A94206D0564A2832914201D11A4604
:1003F00000E022464B4908394A60C16A71E04FF07B
:10040000020808FA04F818EA020F70D05FEA83784D
:100410006DD50A68920606D40A6822F00A020A60BC
:10042000012180F82110DFF810814FF4007201687B
:1004300008F1140813011402414524D9A9420DD032
:10044000B1420FD0B9421AD0614515D0494515D0F7
:10045000514501D1120312E0594501D102220EE0AB
:10046000714501D120220AE0354D1435A94206D04C
:10047000334A2832914201D11A4600E022462F49E0
:10048000091F0A6029E0A94213D0B14215D0B94230
:1004900020D061451BD049451BD0514502D14FF4B6
:1004A000001217E0414502D14FF0007212E05945A9
:1004B00001D102220EE0714501D120220AE0204D37
:1004C0001435A94206D01E4A2832914201D11A465B
:1004D00000E02246134908394A60002180F82010C4
:1004E000816A00291CD0BDE8F05F0847FFE70825B6
:1004F000A540154214D01A0712D50A6822F00E0240
:100500000A6090F84020C36B012101FA02F25A60A0
:10051000816380F82110002180F82010016BE0E752
:10052000BDE8F09F080002401C000240300002407D
:1005300044000240580002406C000240080402409F
:100540001C04024030B560B11A4B026814219A4273
:1005500009D2194B1344B3FBF1F189000164174927
:100560000AE0012030BD134B5B421344B3FBF1F1B1
:10057000890001640F490839C163022180F8211004
:10058000136843F6F0718B43F0E901142143D0E97D
:1005900002452C4321430469214344692143846972
:1005A0002143194311600021416301224277017701
:1005B000084630BD08040240F8FFFDBF00000240BD
:1005C0002DE9F84FDFF8C891002409F1040A0AF177
:1005D000040B23460F270BF1040ED1E00125A540A3
:1005E00006EA0502AA4276D1DFF8A8C14E68A6EB5A
:1005F0000C0866452BD00DDC032E34D005DC36B359
:10060000012E19D0022E2FD11BE0112E16D0122E42
:100610002AD119E0B8F5881F19D006DCB8F5803F5B
:1006200015D0B8F5801F1FD111E0B8F5001F0ED00E
:10063000B8F5041F18D10AE0CB6815E0CB681B1D84
:1006400012E0CB6808330FE0CB680C330CE08B680A
:100650002BB1012B4FF0080303D0456104E00423C4
:1006600002E0056100E00023FF2A01D8064601E010
:1006700000F104064FEA840501D9A5F12005D6F85A
:10068000008007FA05FC28EA0C0803FA05F548EA99
:100690000508C6F800804D68ED0070D53E4DAE6986
:1006A00046F00106AE61AD6924F0030605F00105D0
:1006B00000953A4D06EB050CDCF80850A607360FFE
:1006C00007FA06F825EA0805DFF8D480404503D18B
:1006D0004FF0000825E052E0DFF8C880404502D125
:1006E0004FF001081DE0DFF8C080404502D14FF017
:1006F000020816E0DFF8B480404502D14FF003084D
:100700000FE0DFF8AC80404502D14FF0040808E06C
:10071000DFF8A080404502D14FF0050801E04FF01E
:10072000060808FA06F848EA0508CCF808804D687B
:10073000D9F80060ED034D4601D5164300E096431D
:100740002E604D68DAF80060AD03554601D51643BA
:1007500000E096432E604D68DBF80060ED025D46D8
:1007600001D5164300E096432E604D68DEF8006028
:10077000AD02754601D5164300E096432E60641C19
:100780000A681646E2407FF429AFBDE8F88F000002
:100790000004014000001110001002400000014060
:1007A00000080140000C014000100140001401400D
:1007B00000180140001C014001488068704700009B
:1007C00000000020704770472DE9F04102680024C6
:1007D0005168C56A90F83E3090F83D60102B1CD0EF
:1007E000402B1AD0036C002B7ED053694FF02805A4
:1007F000DB439F0779D4CF43BF0576D4016C01B1A9
:10080000946990F83D3000219D430B467FD0C91E6E
:10081000516180F83C30BDE8F081946953694FF430
:100820002A07DB435FEAC37C4FF02A4604D0BD426F
:10083000F1D0B542EFD010E0CD43AD050DD4C16A83
:10084000B94201D1012103E0C16AB14201D10821BD
:10085000C162BDE8F04101F019B81D0716D4CD43BF
:10086000AD0513D4416CC9B21161416B11B9826BF2
:10087000002AD0D0896A19B9816B896A0029CAD047
:100880000068416841F400614160C4E79D0706D4F7
:10089000CD43AD0503D4BDE8F04100F04BBFE443C8
:1008A000526864074FEA025215D4002AB3DB1A06D5
:1008B00008D4CA43520505D45A0705D5BDE8F0410E
:1008C00000F0B6BE5A07A6D4C9438905A3D4BDE833
:1008D000F04100F06BBE002A9DDB5A060CD4CA43DF
:1008E000520509D45A0702E00FE023E00FE005D5D6
:1008F000BDE8F04100F011BE5A078CD4C943890508
:1009000089D4BDE8F04100F09FBD94696DE755685A
:1009100025F480655560E243540700D50121120695
:1009200001D5828900E0028B80F83C3092B2FFF75B
:100930004AFF70E7DC0606D4CC43A40503D4BDE827
:10094000F04100F0EBBF212E27D0292E25D05C06E8
:1009500055D4CC43640552D45B0752D590F83D1072
:10096000438D002B91D01269436A1A70426A521C5F
:100970004262428D521E4285428D002A85D12A292B
:10098000D7D101684A6822F480624A60222101635B
:1009900080F83D5000F056F93DE71C0623D4CC43C7
:1009A000640520D45B0720D590F83D10438D002BC3
:1009B000BFD0436A1B781361426A521C4262428D67
:1009C000521E4285428D002AB3D12929B1D1016836
:1009D0004A6822F480624A602121016380F83D5018
:1009E00000F031F917E75B07A3D4C9438905A0D408
:1009F000418D00299DD0416A097811610AE05B07A9
:100A000097D4C943890594D4418D002991D01169A7
:100A1000426A1170416A491C4162418D491E4185FB
:100A2000F9E6704770B504001BD094F83D0000252E
:100A300020B984F83C50204600F0B4F8242084F813
:100A40003D002068016821F00101016000F02AFAF0
:100A50004D4A6168914201D84C4900E04C498842B6
:100A600001D2012070BD4B492368B0FBF1F15E68F3
:100A700026F03F060E435E606368934206D94FF44A
:100A8000967359434FF47A73B1FBF3F12368491C11
:100A90001E6A26F03F06314319626168914210D800
:100AA0004900401EB0FBF1F2521CC2F30B02042AB3
:100AB00001D2042022E0B0FBF1F0401CC0F30B0097
:100AC0001CE0A368F3B301EBC10202EB0116421E66
:100AD000B2FBF6F2521C42F48042120549D093B3A5
:100AE00001EBC10202EB0111401EB0FBF1F0401C12
:100AF000C0F30B0040F4804040F400402168CA6914
:100B00004CF6FF739A431043C861D4E907010843C8
:100B100021680A6822F0C00210430860D4E903018A
:100B200001432068826848F2FF339A431143816091
:100B3000D4E9050108432168CA6822F0FF02104386
:100B4000C86001E00EE016E02068016841F0010194
:100B500001602564202084F83D00256384F83E5020
:100B6000002070BD01EB4106421EB2FBF6F2521CA2
:100B7000B3E70120C2E701EB4101401EB0FBF1F0F9
:100B8000401CC0F30B00B7E7A086010080841E0064
:100B900000093D0040420F007047704770477047A2
:100BA0007047000070B586B0002506460095019597
:100BB0000295039500681E49884236D11D4CA069F4
:100BC00040F00800A061A069694600F008000490A8
:100BD000C020009012200190032003901648FFF7D8
:100BE000EFFCE06940F40010E061E069144C00F4AF
:100BF000001004901148C4E900058020C4E90250A7
:100C000020202561C4E905502046E561FFF79AFCE4
:100C100008B1FFF7D6FAB463002211461F206662BE
:100C200000F078F81F2000F067F806B070BD0000F3
:100C30000054004000100240000C014080000240BF
:100C400064000020704770470248816802781144B0
:100C50008160704700000020074810B5016841F02E
:100C600010010160032000F075F8002000F006F884
:100C700000F024F8002010BD0020024070B50D4D9A
:100C800004464FF47A712878B1FBF0F00A490968FC
:100C9000B1FBF0F000F0DCFA48B9102C07D20022CA
:100CA0002146501E00F036F800206C6070BD012017
:100CB00070BD0000000000200C0000200C4808B5AA
:100CC000816941F001018161816901F001010091B7
:100CD000C16941F08051C161C06900F0805000904D
:100CE0000448416821F0E06141F00071416008BDB5
:100CF0000010024000000140002809DB00F01F0244
:100D0000012191404009800000F1E020C0F800116D
:100D100070470000F0B40E4B1B680C46C3F302236F
:100D2000C3F10705042D00D90425191D072901D297
:100D3000002300E0DB1E012606FA05F1491E2140D2
:100D400099409E40761E16403143F0BC00F0E5BE4F
:100D50000CED00E0064900F0070208684FF6FF03BB
:100D6000184040EA0220034A104308607047000020
:100D70000CED00E00000FA052DE9F0470F460500F4
:100D800061D0434E306800F00700B84209D23068A5
:100D900020F0070038433060306800F00700B842A8
:100DA00051D128683B4C810712D5400703D56068B4
:100DB00040F4E06060602878000703D5606840F484
:100DC000605060606068A96820F0F00008436060CF
:100DD0002878C00728D06868012810D02168022828
:100DE00010D0890700292EDA616821F00301014340
:100DF0006160FFF7E1FC804641F288390DE021682F
:100E00008903EFE78901EDE7FFF7D6FCA0EB0801C6
:100E1000494502D90320BDE8F0876068696800F0A1
:100E20000C00B0EB810FEFD1306800F00700B84242
:100E30000BD9306820F0070038433060306800F08C
:100E40000700B84201D00120E5E72878400705D522
:100E50006068E96820F4E060084360602878000773
:100E600006D56068296920F4605040EAC1006060DE
:100E700000F028F86168084AC1F30311515CC840CA
:100E80000649086006480068FFF7F8FE0020C2E740
:100E90000020024000100240E81B00080C00002067
:100EA000040000200448054900684968044AC1F369
:100EB0000221515CC84070470C0000200010024025
:100EC000F81B000812A185B00FC98DE80F0014A00F
:100ED000144A006804905168134801F00C03042B75
:100EE00010D0082B0ED1C1F38343C9031DF80300B2
:100EF0000AD5516804AAC1F34041515C0A4A5043E3
:100F0000B0FBF1F005B0704708494843FAE700002C
:100F100002030405060708090A0B0C0D0E0F10103A
:100F2000010200000010024000127A0000093D009A
:100F30002DE9F84F040070D02078C04DC00749D08B
:100F40006868C0F38100012807D06868C0F3810099
:100F5000022809D16868C00306D52868800339D5FE
:100F600060680028E7D035E06068B0F5803F0BD0BE
:100F700010B1B0F5A02F11D0286820F4803028607F
:100F8000286820F4802002E0286840F4803028603F
:100F9000606890B1FFF710FC06460AE0286840F44C
:100FA00080202860F0E700BFFFF706FC801B642864
:100FB00073D828688003F7D50CE0FFF7FDFB0646E1
:100FC00005E000BFFFF7F8FB801B6428F0D8286815
:100FD0008003F7D420789A4E80074FF001094FF034
:100FE000000839D5686810F00C0F07D06868C0F3A6
:100FF0008100022809D16868C00306D428688007E8
:1010000014D52069012808D110E02069B0B1C6F8D4
:101010000090FFF7D1FB074605E00AE1FFF7CCFBA4
:10102000C01B0228C4D828688007F7D528686169E2
:1010300020F0F80040EAC10028600DE0C6F800800A
:10104000FFF7BAFB074604E0FFF7B6FBC01B022818
:1010500023D828688007F7D4207800072CD5794852
:10106000A169D9B1C0F80090FFF7A6FB074604E0DC
:10107000FFF7A2FBC01B02280FD8686A8007F7D5CC
:1010800071484FF4FA510068B0FBF1F0009000BFD6
:101090000098411E0091FAD20EE080E0C0F8008076
:1010A000FFF78AFB074604E0FFF786FBC01B022818
:1010B00075D8686A8007F7D42078400760D5E8695A
:1010C0000027C00008D4E86940F08050E861E86972
:1010D000012700F0805000905C480168C90513D4D6
:1010E0000168834641F480710160FFF765FB824629
:1010F00006E000BFFFF760FBA0EB0A0064284ED8B3
:10110000DBF80000C005F5D5E06801280AD008B179
:10111000052813D0286A20F001002862286A20F0F0
:10112000040002E0286A40F001002862E06841F211
:10113000883B98B1FFF740FB82460BE0286A40F0FD
:1011400004002862EEE700BFFFF736FBA0EB0A01C0
:1011500059455AD8286A8007F6D50CE0FFF72CFBD2
:10116000824605E0FFF728FBA0EB0A0159454CD861
:10117000286A8007F6D41FB1E86920F08050E86142
:10118000E06988B36968C1F38101022944D002286B
:10119000C6F8608004D0FFF70FFB044638E034E067
:1011A000FFF70AFB074604E0FFF706FBC01B022817
:1011B0002BD828688001F7D4206AB0F5803F05D18C
:1011C0006868A16820F4003008436860D4E9080129
:1011D0000843696821F4741108436860C6F8609098
:1011E000FFF7EAFA044606E025E000BFFFF7E4FA5D
:1011F000001B022809D828688001F7D51BE000BF32
:10120000FFF7DAFA001B022802D90320BDE8F88FA5
:1012100028688001F4D40EE00128F7D06868226ABB
:1012200000F48031914204D1616A00F47010884268
:1012300001D00120EAE70020E8E7000000100240AA
:1012400000004242800442420C0000200070004036
:1012500010B5401EB0F1807F01D3012010BD4FF0CA
:10126000E02460610F21601700F057FC0020A061AE
:1012700007202061002010BDFEE700000148FFF7B5
:10128000A3BA00001000002010B5406A90F83D306D
:10129000426B00219162826B91620268146824F4AF
:1012A000806414604185426B5163826B51630268B4
:1012B000146824F00104146090F83D202024602A72
:1012C0000BD0282232EA03030FD080F83D4080F88B
:1012D0003E1000BFFFF7A5FB10BD80F83D4080F831
:1012E0003E100164FFF76EFA10BD03681C6844F0FD
:1012F00001041C6003681C6844F480641C60016382
:1013000080F83D20E6E7000070B5044690F83D0007
:1013100094F83E10102906D1222804D121680A68C9
:1013200022F400620A60282131EA00024FF0000531
:101330004FF0200626D021684968090503D46028AB
:1013400001D084F83D60256384F83E5020684168F0
:10135000090537D5416821F400614160606B384967
:1013600090F82120012A11D04163606BFEF72AFF1B
:1013700038B32068016821F00101016084F83D6004
:10138000606B1CE0256384F83D10DFE7A06B4163D0
:10139000A06BFEF717FFA0B120684169C943490659
:1013A00005D40069616A0870606A401C6062206848
:1013B000016821F00101016084F83D60A06B416B80
:1013C000884710E094F83D10602923D04169C94353
:1013D000490605D40069616A0870606A401C606251
:1013E0002046FFF71EFB94F83D00216C490710D5FD
:1013F00028280ED12068416821F4E061416011483D
:10140000E062256384F83D6084F83E502046FFF793
:10141000C3FB70BD84F83D6025644169C94349063A
:1014200005D40069616A0870606A401C60622068C7
:10143000016821F0010101602046FFF7C3F9D2E7FE
:10144000891200080000FFFF10B5C26A438D0168D1
:10145000042B06D0438D032B08D0438D022B1DD0C7
:1014600012E04A6822F480624A600CE04B6823F480
:1014700080634B60042A06D0022A04D001680A68FF
:1014800022F480620A6001680969426A1170416A47
:10149000491C4162418D491E418510BD012A30D051
:1014A000102A2ED0042A30D0022A2ED00A6842F404
:1014B00000720A6001680969426A1170416A491C38
:1014C0004162428D521E4285026812690A70416A69
:1014D000491C4162418D491E418501684A6822F4D8
:1014E00040724A60202180F83D1090F83E20002193
:1014F000402A80F83E100CD012210163FFF74DFB0B
:1015000010BD0A6822F48062D3E70A6842F4806260
:10151000CFE70163FFF743FB10BD10B590F83D1016
:10152000222914D1418D032912D901680969426A1F
:101530001170416A491C4162418D491E4185418DAE
:10154000032904D10068416821F48061416010BD25
:10155000C26A022AFBD0012901D00029F7D1016813
:101560000A6822F480620A6001684A6822F4E06234
:101570004A6001680969426A1170416A491C416206
:10158000418D491E4185202180F83D1090F83E2074
:101590000021402A80F83E1004D012210163FFF799
:1015A000FCFA10BD0163FFF7FAFA10BD10B5C26A6C
:1015B00090F83D1021290BD1418D51B1416A02684B
:1015C00009781161416A491C4162418D491E41857A
:1015D00010BD20230021082A13D0202A11D012F593
:1015E000803F0ED00268546824F4E06454601122F5
:1015F000026380F83E1080F83D3000BFFFF7CEFA5E
:1016000010BD0268546824F4E064546002681468F1
:1016100044F400741460016380F83D3090F83E207B
:1016200080F83E10402AE9D1FFF7BAFA10BD000059
:1016300010B590F83D1090F83E30C26A048D64B148
:10164000212903D0402B21D122291FD1418DA1B3C3
:1016500090F83E10402937D046E02129F2D12023CE
:101660000021082A13D0202A11D012F5803F0ED075
:101670000268546824F4E06454601122026380F824
:101680003E1080F83D3000BFFFF788FA10BD0268B9
:10169000546824F4E06454600268146844F40074EC
:1016A0001460016380F83D3090F83E2080F83E10D1
:1016B000402AE9D1FFF774FA10BDFFE700684168DE
:1016C00021F480614160F7E7016DC1B1016D01292D
:1016D00022D0016D0229EFD190F83D10222923D0AC
:1016E00090F83D102129E7D1416A0268097811611B
:1016F000416A491C4162418D491E4185DCE7C16C4C
:101700000129816C02D0C1F3072107E00268C9B248
:101710001161016D891C05E0816CC9B2026811611B
:10172000016D491C0165C7E70068016841F48071DB
:101730000160C1E778B590F83E50C26A046B90F83A
:101740003D6000230168222E73D1066D0EB9402D35
:101750006FD0056D1DB90569B5F5404F1BD0458D9E
:1017600095B3468D484D012E20D0448D022C4DD08E
:101770000C6844F480640C6001684C68240579D5D9
:10178000AA4273D0012A71D0082A6FD0102A6DD0D6
:10179000202A6BD06EE04A698A6900920A6842F496
:1017A00080720A60016D491C016578BDAA4214D19E
:1017B0000A6822F480620A6001684A68120504D54A
:1017C0000A6822F4806217E0FFE74A698A6900929A
:1017D0000A6842F400720A6050E0082A10D0202AF9
:1017E0000ED0122C0AD0042A03D0022A01D0102ACB
:1017F000E6D10A6842F480620A603BE0012ADFD049
:101800000A6822F480620A600168DEE7042A11D0C7
:10181000022A0FD0102A0DD00C6844F400640C602A
:1018200001684C698C6900940C6824F480640C6035
:1018300008E025E00C6844F480640C6001684C69A1
:101840008969009101684C68240517D5AA4207D020
:10185000012A05D0082A03D0102A01D0202A0DD150
:101860004A6842F480524A6008E0FFE74A6842F45E
:1018700080524A6001684A6989690091036578BDB0
:1018800048698869009078BD0000FFFF90F83E101D
:10189000402910D00169B1F5804F19D0016DB1B365
:1018A000016D012910D1416C5FF0F10201F440712A
:1018B00042EAD11106E0016D0029416C05D0C9B2A0
:1018C00041F0010100680161704701F0FE01F9E794
:1018D00090F83D102129416C07D0C9B241F00101B7
:1018E00002681161416B31B902E001F0FE01F7E7D6
:1018F000826B002AE8D0896A19B9816B896A00294C
:10190000E2D00068416841F4006141607047FFE740
:10191000416CF02201F44071CAE70000F8B590F87C
:101920003D6004460068416821F4E0614160206840
:10193000002541690091016841F0010101602068C2
:10194000016821F48061016020684168090520D5A3
:10195000474F222E48D02A2E46D0616B096849682D
:101960006185618D19B1216C41F0040121644168E8
:1019700021F400614160606BFEF7BCFC012808D0D7
:10198000606B4763606BFEF71DFC10B1606B416BD1
:101990008847608D08B320684169C943490708D466
:1019A0000069616A0870606A401C6062608D401E58
:1019B000608520684169C943490608D40069616AA5
:1019C0000870606A401C6062608D401E6085608D9A
:1019D00018B1206C40F004002064206C00B3204655
:1019E000BDE8F840FFF790BCA16B096849686185C4
:1019F000618D19B1216C41F004012164416821F429
:101A000000614160A06BFEF775FC0128C1D0A06B9E
:101A10004763A06BFEF7D6FB0028BAD0A06BB6E7F1
:101A20002A2E06D12563282084F83D002046FFF7A2
:101A300009F994F83D10202028290DD0216B222986
:101A400001D0222E07D1256384F83D0084F83E5052
:101A50002046FFF7F7F8F8BD0649E162256384F8F0
:101A60003D0084F83E502046FFF796F8F8BD000090
:101A7000891200080000FFFFFEE7704770477047BB
:101A8000FFF7E2B830B58FB028216846FEF773FB48
:101A900014210AA8FEF76FFB012108040024049119
:101AA000CDE90010CDE908040294022507956846A7
:101AB000FFF73EFA0F20CDE90A0580200C90C00008
:101AC000CDE90D0400210AA8FFF756F90FB030BD8B
:101AD0000D48016841F00101016041680B4A114065
:101AE000416001680A4A11400160016821F48021C7
:101AF0000160416821F4FE0141604FF41F018160E3
:101B00000449C00308607047001002400000FFF85D
:101B1000FFFFF6FE08ED00E0FEE70907090E0028CA
:101B200004DB00F1E02080F80014704700F00F00A3
:101B300000F1E02080F8141D704702E008C8121F71
:101B400008C1002AFAD170477047002001E001C1A6
:101B5000121F002AFBD1704708B5FFF77DF8FFF789
:101B600091FF1D48816941F020018161816901F087
:101B700020010091816941F004018161816901F0D6
:101B800004010091816941F008018161816901F0DE
:101B900008010091416941F0010141614069002261
:101BA00000F00100009011461120FFF7B3F811205A
:101BB000FFF7A2F80A4809494FF480420160094939
:101BC000416000218160C0E9031241618161C1610E
:101BD0000162FEF727FFFEE70010024000540040BC
:101BE00010000020801A0600000000000000000025
:101BF00001020304060708090000000001020304B3
:101C0000201C000800000020100000003A1B000803
:101C1000301C000810000020980400004A1B000837
:101C20000100000010000000000000000024F4008B
:0400000508000131BD
:00000001FF
