:020000040800F2
:10000000C004002001010008AB2600080D190008FB
:10001000A926000843040008292900080000000060
:10002000000000000000000000000000AF260008F3
:100030004504000800000000AD260008B1260008B5
:100040001B0100081B0100081B0100081B01000820
:100050001B0100081B0100081B0100081B01000810
:100060001B0100081B0100081B0100081B01000800
:100070001B0100081B0100081B0100081B010008F0
:100080001B0100081B0100081B0100081B010008E0
:100090001B0100081B0100081B01000847040008A1
:1000A0001B0100081B0100081B0100081B010008C0
:1000B0001B0100081B0100081B01000811190008A2
:1000C0001B0100081B0100081B0100081B010008A0
:1000D0001B0100081D2900081B0100081B01000866
:1000E0001B0100081B0100081B010008DFF80CD0F1
:1000F00000F086F90048004769290008C004002084
:100100000648804706480047FEE7FEE7FEE7FEE7B1
:10011000FEE7FEE7FEE7FEE7FEE7FEE7F52600085E
:10012000ED000008202A04DB203A21FA02F0002129
:10013000704721FA02F3D040C2F1200291400843F7
:1001400019467047D2B201E000F8012B491EFBD2DC
:1001500070470022F6E710B513460A4604461946D2
:10016000FFF7F0FF204610BD2DE9FE4F81EA0304A2
:1001700004F0004421F0004100944FF0000B23F004
:10018000004350EA01045ED052EA03045BD0C3F39B
:100190000A54C1F30A552C44A4F2F3340194A0FB91
:1001A0000254C1F3130141F48011C3F3130343F468
:1001B000801301FB024400FB034E840A970A44EAC1
:1001C000815447EA8357A4FB076802958D0A05FB13
:1001D00007854FEA932C04FB0C542705029D4FEA38
:1001E000065847EA1637B5EB08056EEB070C870E85
:1001F000920E47EA811742EA8312A7FB0201B6EB8F
:100200000B0164EB00042B0D43EA0C335E1844EB46
:100210001C50DA465146E7FB0201C5F313044FEACE
:100220000B3343EA14534FEA0432019C43EA0603BA
:10023000A4F10C040294009CCDE900B400F091F804
:1002400003B0BDE8F08F00200146F9E770B521F05A
:10025000004303430CD0C1F30A550024D5EB040539
:1002600064EB0403D617AD1AB34102DB002001464C
:1002700070BD201841EB025170BD9623002211463B
:1002800000F032B80EB540F2334102910021CDE9C1
:1002900000110A460B4600F064F803B000BD01F0FF
:1002A000004330B421F0004150EA010206D00A0DAB
:1002B000A2F56072C1F31301002A02DC30BC0020F9
:1002C0007047440F44EAC104C100E01830BC00EBA1
:1002D000C250AFF300800029A8BF7047401C4900FE
:1002E00008BF20F00100704710B4B0FA80FC00FA9B
:1002F0000CF050EA010404BF10BC704749B1CCF1C6
:10030000200421FA04F411FA0CF118BF0121214351
:100310000843A3EB0C01CB1D4FEA00614FEA10200C
:1003200042BF002010BC704700EBC35010440029AE
:10033000A4BF10BC7047401C490008BF20F001005A
:1003400010BC704710B5141E73F1000408DA401C8D
:1003500041F1000192185B411A4301D120F00100E4
:1003600010BD2DE9F04D92469B4611B1B1FA81F2D4
:1003700002E0B0FA80F22032904600F053F80446D2
:100380000F4640EA0A0041EA0B0153465A46084329
:1003900013D0114653EA010019D0C8F1400250466B
:1003A000FFF7C0FE05460E4650465946424600F04D
:1003B00039F8084305D0012004E020463946BDE85D
:1003C000F08D0020054346EAE0762C4337430A9837
:1003D0006305E40AA0EB08000022FD0A44EA475442
:1003E0000A3002D500200146E9E7010510196941EC
:1003F000DDE9084500196941BDE8F04DA2E70000BC
:10040000064C074D06E0E06840F0010394E8070061
:1004100098471034AC42F6D3FFF76CFE442A00082C
:10042000642A0008202A04DB203A00FA02F10020A6
:1004300070479140C2F1200320FA03F31943904022
:100440007047FEE77047202000F05EB810B590F8C6
:1004500021100024022903D00421816301243DE0FE
:1004600001680A6822F00E020A6001680A6822F038
:1004700001020A601A4A0168914201D1012121E07A
:10048000174A1432914201D110211BE0144A28323C
:10049000914201D1891515E0114A3C32914201D1B6
:1004A00089140FE00E4A5032914202D14FF480314C
:1004B00008E00B4A6432914202D14FF4801101E00E
:1004C0004FF08071064A083A5160012180F82110EE
:1004D000002180F82010416B01B18847204610BDF3
:1004E0000800024090F821007047000010B501227A
:1004F0001021044800F004F9BDE810400B2002F080
:1005000069B80000000C0140044910B50A680242B5
:1005100002D00860FFF7EAFF10BD0000140401409C
:100520002DE9F84FDFF8B891002409F1040A0AF127
:10053000040B23460F270BF1040EC9E00125A5404B
:100540002A40AA427DD1674ED1F804C0ACEB060820
:10055000B44532D014DCBCF1030F3AD009DCBCF155
:10056000000F2AD0BCF1010F1CD0BCF1020F31D119
:100570001DE0BCF1110F17D0BCF1120F2AD119E008
:10058000B8F5881F19D006DCB8F5803F15D0B8F54E
:10059000801F1FD111E0B8F5001F0ED0B8F5041F61
:1005A00018D10AE0CB6815E0CB681B1D12E0CB68C0
:1005B00008330FE0CB680C330CE08B682BB1012BB8
:1005C0004FF0080303D0456104E0042302E0056115
:1005D00000E00023FF2A01D8064601E000F10406EE
:1005E0004FEA840501D9A5F12005D6F8008007FA65
:1005F00005FC28EA0C0803FA05F548EA0508C6F8E0
:1006000000804D68ED0062D5374DAE6946F00106B9
:10061000AE61AD6924F0030605F001050095334D88
:1006200006EB050CDCF80850A607360F07FA06F8AB
:1006300025EA0805DFF8B880404503D14FF00008EF
:1006400017E044E0DFF8AC80404502D14FF00108EC
:100650000FE0DFF8A480404502D14FF0020808E027
:10066000DFF89880404502D14FF0030801E04FF0D9
:10067000040808FA06F848EA0508CCF808804D682E
:10068000D9F80060ED034D4601D5164300E09643CE
:100690002E604D68DAF80060AD03554601D516436B
:1006A00000E096432E604D68DBF80060ED025D4689
:1006B00001D5164300E096432E604D68DEF80060D9
:1006C000AD02754601D5164300E096432E60641CCA
:1006D0000D682A46E5407FF431AFBDE8F88F000091
:1006E0000004014000001110001002400000014011
:1006F00000080140000C01400010014000140140BE
:100700000AB1016170470904FBE7000001488068F5
:100710007047000018000020704770472DE9F04135
:10072000026800245168C56A90F83E3090F83D6038
:10073000102B1CD0402B1AD0036C002B7ED0536999
:100740004FF02805DB439F0779D4CF43BF0576D40C
:10075000016C01B1946990F83D3000219D430B4636
:100760007FD0C91E516180F83C30BDE8F0819469AA
:1007700053694FF42A07DB435FEAC37C4FF02A46F4
:1007800004D0BD42F1D0B542EFD010E0CD43AD056D
:100790000DD4C16AB94201D1012103E0C16AB1425D
:1007A00001D10821C162BDE8F04101F07FBC1D0705
:1007B00016D4CD43AD0513D4416CC9B21161416B60
:1007C00011B9826B002AD0D0896A19B9816B896A04
:1007D0000029CAD00068416841F400614160C4E763
:1007E0009D0706D4CD43AD0503D4BDE8F04101F02B
:1007F000B1BBE443526864074FEA025215D4002AA1
:10080000B3DB1A0608D4CA43520505D45A0705D5E6
:10081000BDE8F04101F01CBB5A07A6D4C9438905C5
:10082000A3D4BDE8F04101F0D1BA002A9DDB5A06FD
:100830000CD4CA43520509D45A0702E00FE023E062
:100840000FE005D5BDE8F04101F0C8B95A078CD4D6
:10085000C943890589D4BDE8F04101F056B99469CE
:100860006DE7556825F480655560E243540700D56F
:100870000121120601D5828900E0028B80F83C300C
:1008800092B2FFF74AFF70E7DC0606D4CC43A4051A
:1008900003D4BDE8F04101F0C3BC212E27D0292E9E
:1008A00025D05C0655D4CC43640552D45B0752D5A1
:1008B00090F83D10438D002B91D01269436A1A7055
:1008C000426A521C4262428D521E4285428D002A6B
:1008D00085D12A29D7D101684A6822F480624A600A
:1008E0002221016380F83D5000F0E8FB3DE71C0643
:1008F00023D4CC43640520D45B0720D590F83D1069
:10090000438D002BBFD0436A1B781361426A521C8F
:100910004262428D521E4285428D002AB3D129295E
:10092000B1D101684A6822F480624A6021210163E2
:1009300080F83D5000F0C3FB17E75B07A3D4C94321
:100940008905A0D4418D00299DD0416A09781161A3
:100950000AE05B0797D4C943890594D4418D0029E7
:1009600091D01169426A1170416A491C4162418DFE
:10097000491E4185F9E6704770B504001BD094F814
:100980003D00002520B984F83C50204600F060FB73
:10099000242084F83D002068016821F001010160F5
:1009A00000F0BCFC4D4A6168914201D84C4900E01E
:1009B0004C49884201D2012070BD4B492368B0FBED
:1009C000F1F15E6826F03F060E435E606368934275
:1009D00006D94FF4967359434FF47A73B1FBF3F190
:1009E0002368491C1E6A26F03F063143196261687C
:1009F000914210D84900401EB0FBF1F2521CC2F3E4
:100A00000B02042A01D2042022E0B0FBF1F0401CCA
:100A1000C0F30B001CE0A368F3B301EBC10202EBCF
:100A20000116421EB2FBF6F2521C42F4804212053D
:100A300049D093B301EBC10202EB0111401EB0FBA0
:100A4000F1F0401CC0F30B0040F4804040F4004043
:100A50002168CA694CF6FF739A431043C861D4E910
:100A60000701084321680A6822F0C00210430860A9
:100A7000D4E9030101432068826848F2FF339A43B6
:100A800011438160D4E9050108432168CA6822F056
:100A9000FF021043C86001E00EE016E02068016824
:100AA00041F0010101602564202084F83D002563A8
:100AB00084F83E50002070BD01EB4106421EB2FB9F
:100AC000F6F2521CB3E70120C2E701EB4101401EE0
:100AD000B0FBF1F0401CC0F30B00B7E7A0860100AB
:100AE00080841E0000093D0040420F00704770479F
:100AF000704700002DE9F84F1F4690468A4604468D
:100B0000DDF82890FFF702FE054694F83D00202806
:100B100079D11923012277492046009501F054FC30
:100B20000028F5D194F83C0001286CD0012084F80D
:100B30003C0020680168C90703D1016841F0010148
:100B400001602068016821F400610160222084F8BE
:100B50003D00102084F83E0000262664C4F824805E
:100B60006785608D20856448E0622B464A46514681
:100B7000204601F07CF800287ED1208D5F4F68B1BF
:100B8000012814D00228206801681ED041F4806139
:100B9000016020684169806900909DE0206841699A
:100BA00081690091016841F40071016094E020685E
:100BB000016821F48061016072B620684169816931
:100BC0000091016841F400710AE041F400610160A4
:100BD00072B62068416981690091016821F48061E1
:100BE000016062B678E0032850D801280CD00228B2
:100BF0004B464FF000023946204600950FD001F0D9
:100C0000E3FBC8BB10E073E02A464946204601F0EA
:100C10005AFC88BB20680069616A087053E001F0E3
:100C2000D3FB48BB72B61AE02068016821F48061EA
:100C3000016072B620680069616A0870606A401CD1
:100C40006062208D401E2085608D401E60854B4671
:100C5000002239462046009501F0B6FB60B92068B5
:100C6000016841F40071016020680069616A0870E0
:100C7000606A401C606200E00EE0218D491E218503
:100C8000618D491E618562B621681AE02A4649468F
:100C9000204601F018FC10B10120BDE8F88F206853
:100CA0000069616A0870606A401C6062218D491E9B
:100CB0002185618D491E618521684A69D2435207A9
:100CC0000AD409690170606A401C6062208D401E70
:100CD0002085608D401E6085208D002883D12020D6
:100CE00084F83D0084F83E6084F83C600020D4E73E
:100CF0000220D2E7020010000000FFFF0400010004
:100D00002DE9F84F1F4690468A460446DDF82890A4
:100D1000FFF7FCFC054694F83D0020287FD11923FD
:100D2000012240492046009501F04EFB002876D173
:100D300094F83C00012872D0012084F83C0020681F
:100D40000168C90703D1016841F001010160206811
:100D5000016821F400610160212084F83D00102029
:100D600084F83E0000262664C4F824806785608DE0
:100D700020852D48E0622B464A465146204600F029
:100D8000E1FF90B9206841698069009036E02A4609
:100D90004946204601F0CAFB50B1206C042804D11A
:100DA0002068016841F4007101600120BDE8F88FFE
:100DB000606A216800780861606A401C6062618D29
:100DC000491E6185218D491E89B22185226853699A
:100DD000DB435B070BD451B100781061606A401CA3
:100DE0006062608D401E6085208D401E20852A46F1
:100DF0004946204601F0C2FA0028CED1208D0028B5
:100E0000C5D154F83D0B016841F400710160202008
:100E100004F81E09E67766770020C7E7FFE702209F
:100E2000C4E70000020010000000FFFF7047704799
:100E30002DE9FF4F83B09A46DDE9119793460446AA
:100E4000DDF84080FFF762FC054694F83D0020285D
:100E50006FD1192301227B492046009501F0B4FA95
:100E60000028F5D194F83C00012862D0012084F8D4
:100E70003C0020680168C90703D1016841F0010105
:100E800001602168086820F400600860222084F86E
:100E90003D00402084F83E0000262664C4F82480EB
:100EA000A4F82A90608D20856748E062CDE900753E
:100EB00053465A462046049901F03FF900287DD157
:100EC000208DDFF8888168B1012814D0022820D055
:100ED0002068016841F4806101602068416980698F
:100EE0000090A0E02068416981690091016841F4A7
:100EF0000071016097E02068016821F48061016061
:100F000072B62068416981690091016841F40071FD
:100F10000CE02168086840F40060086072B6206840
:100F2000416981690091016821F48061016062B6C4
:100F300079E084E003284FD801280BD002283B46F3
:100F40004FF000024146204600950ED001F03CFAD9
:100F5000A0BB0FE02A463946204601F0B4FA68BB30
:100F600020680069616A087054E001F02DFA28BB1E
:100F700072B61AE02068016821F48061016072B6DF
:100F800020680069616A0870606A401C6062208D98
:100F9000401E2085608D401E60853B4600224146F4
:100FA0002046009501F010FA40B92068016841F42C
:100FB0000071016020680069616A00E012E0087059
:100FC000606A401C6062218D491E2185618D491E29
:100FD000618562B621681BE02A463946204601F049
:100FE00072FA18B1012007B0BDE8F08F20680069DF
:100FF000616A0870606A401C6062218D491E21850B
:10100000618D491E618521684A69D24352070AD41D
:1010100009690170606A401C6062208D401E208555
:10102000608D401E6085208D002883D1202084F8AB
:101030003D0084F83E6084F83C600020D3E7022045
:10104000D1E70000020010000000FFFF04000100D3
:1010500010B586B0002100910191029103910068C2
:101060001349884222D1134CA06940F00800A061C6
:10107000A069694600F008000490C020009012208A
:101080000190032003900C48FFF74AFAE06940F40E
:101090000010E061E069002200F4001004901146A5
:1010A0001F2000F073F81F2000F062F806B010BD9A
:1010B0000054004000100240000C0140704770478F
:1010C000024881680278114481607047180000204E
:1010D000074810B5016841F010010160032000F0DD
:1010E00075F8002000F006F800F024F8002010BD8C
:1010F0000020024070B50D4D04464FF47A712878F7
:10110000B1FBF0F00A490968B1FBF0F000F0ECFA2D
:1011100048B9102C07D200222146501E00F036F8A4
:1011200000206C6070BD012070BD00001800002020
:10113000240000200C4808B5816941F0010181615B
:10114000816901F001010091C16941F08051C161E3
:10115000C06900F0805000900448416821F0E061CF
:1011600041F00071416008BD0010024000000140E4
:10117000002809DB00F01F02012191404009800096
:1011800000F1E020C0F8001170470000F0B40E4BF1
:101190001B680C46C3F30223C3F10705042D00D9D5
:1011A0000425191D072901D2002300E0DB1E0126BA
:1011B00006FA05F1491E214099409E40761E1640D0
:1011C0003143F0BC01F0B1BB0CED00E0064900F08A
:1011D000070208684FF6FF03184040EA0220034A5E
:1011E00010430860704700000CED00E00000FA05B5
:1011F0002DE9F0470F46050061D0434E306800F0FE
:101200000700B84209D2306820F007003843306048
:10121000306800F00700B84251D128683B4C810784
:1012200012D5400703D5606840F4E060606028781C
:10123000000703D5606840F4605060606068A9688A
:1012400020F0F000084360602878C00728D0686864
:10125000012810D02168022810D0890700292EDA31
:10126000616821F0030101436160FFF74FFA804696
:1012700041F288390DE021688903EFE78901EDE744
:10128000FFF744FAA0EB0801494502D90320BDE865
:10129000F0876068696800F00C00B0EB810FEFD157
:1012A000306800F00700B8420BD9306820F0070022
:1012B00038433060306800F00700B84201D00120A8
:1012C000E5E72878400705D56068E96820F4E06024
:1012D000084360602878000706D56068296920F413
:1012E000605040EAC100606000F038F86168084A68
:1012F000C1F30311515CC840064908600648006804
:10130000FFF7F8FE0020C2E7002002400010024074
:101310002C2A0008240000201C0000200448054955
:1013200000684968044AC1F30221515CC840704713
:1013300024000020001002403C2A0008044805490F
:1013400000684968044AC1F3C221515CC840704733
:1013500024000020001002403C2A000812A185B0A1
:101360000FC98DE80F0014A0144A0068049051685A
:10137000134801F00C03042B10D0082B0ED1C1F33D
:101380008343C9031DF803000AD5516804AAC1F3B9
:101390004041515C0A4A5043B0FBF1F005B0704740
:1013A00008494843FAE70000020304050607080954
:1013B0000A0B0C0D0E0F101001020000001002406D
:1013C00000127A0000093D002DE9F84F040070D0AA
:1013D0002078C04DC00749D06868C0F3810001285B
:1013E00007D06868C0F38100022809D16868C0038B
:1013F00006D52868800339D560680028E7D035E035
:101400006068B0F5803F0BD010B1B0F5A02F11D0BF
:10141000286820F480302860286820F4802002E0CA
:10142000286840F480302860606890B1FFF76EF95A
:1014300006460AE0286840F480202860F0E700BFF4
:10144000FFF764F9801B642873D828688003F7D5F8
:101450000CE0FFF75BF9064605E000BFFFF756F921
:10146000801B6428F0D828688003F7D420789A4E2F
:1014700080074FF001094FF0000839D5686810F077
:101480000C0F07D06868C0F38100022809D1686892
:10149000C00306D42868800714D52069012808D124
:1014A00010E02069B0B1C6F80090FFF72FF90746A9
:1014B00005E00AE1FFF72AF9C01B0228C4D8286812
:1014C0008007F7D52868616920F0F80040EAC1007C
:1014D00028600DE0C6F80080FFF718F9074604E021
:1014E000FFF714F9C01B022823D828688007F7D417
:1014F000207800072CD57948A169D9B1C0F80090AF
:10150000FFF704F9074604E0FFF700F9C01B0228C3
:101510000FD8686A8007F7D571484FF4FA51006810
:10152000B0FBF1F0009000BF0098411E0091FAD28C
:101530000EE080E0C0F80080FFF7E8F8074604E01E
:10154000FFF7E4F8C01B022875D8686A8007F7D453
:101550002078400760D5E8690027C00008D4E86912
:1015600040F08050E861E869012700F08050009069
:101570005C480168C90513D40168834641F4807151
:101580000160FFF7C3F8824606E000BFFFF7BEF830
:10159000A0EB0A0064284ED8DBF80000C005F5D5A2
:1015A000E06801280AD008B1052813D0286A20F085
:1015B00001002862286A20F0040002E0286A40F056
:1015C00001002862E06841F2883B98B1FFF79EF87D
:1015D00082460BE0286A40F004002862EEE700BF74
:1015E000FFF794F8A0EB0A0159455AD8286A8007FA
:1015F000F6D50CE0FFF78AF8824605E0FFF786F89B
:10160000A0EB0A0159454CD8286A8007F6D41FB1CF
:10161000E86920F08050E861E06988B36968C1F347
:101620008101022944D00228C6F8608004D0FFF767
:101630006DF8044638E034E0FFF768F8074604E048
:10164000FFF764F8C01B02282BD828688001F7D464
:10165000206AB0F5803F05D16868A16820F40030A9
:1016600008436860D4E908010843696821F47411EB
:1016700008436860C6F86090FFF748F8044606E043
:1016800025E000BFFFF742F8001B022809D82868B0
:101690008001F7D51BE000BFFFF738F8001B0228D8
:1016A00002D90320BDE8F88F28688001F4D40EE049
:1016B0000128F7D06868226A00F48031914204D191
:1016C000616A00F47010884201D00120EAE700202E
:1016D000E8E700000010024000004242800442425D
:1016E000240000200070004010B5401EB0F1807F43
:1016F00001D3012010BD4FF0E02460610F2160177D
:1017000001F013F90020A06107202061002010BD26
:101710007047000070B5026804461068D1685369CC
:1017200010F00F0F51D003F0010501F4907635430E
:101730005DD0C20705D0CA0503D5E26B42F00102B5
:10174000E263420705D5DA0703D0E26B42F00202FA
:10175000E263820705D5DA0703D0E26B42F00402A8
:10176000E263020705D5DA0703D0E26B42F0080214
:10177000E263E26B002A34D0800604D5880602D5E5
:10178000204600F0F1FF20684069E16BC0F3801053
:1017900001F008010143204624D000F0D7FF206863
:1017A000416949061AD5416921F040014161606BE8
:1017B000A0B11B494163606BFEF748FE002810D0C2
:1017C000606B416BBDE87040084783060FD58B0600
:1017D0000DD52046BDE8704000F0C6BF2046FFF79B
:1017E00097FF70BDFFF794FF0020E06370BD030614
:1017F00006D50B0604D52046BDE8704001F05CB864
:101800004006F3D54806F1D5D168204621F04001C5
:10181000D160202184F8391000F077F870BD000005
:101820003D27000870B5040004D094F83900002565
:1018300010B106E0012070BD84F83850204600F059
:1018400023F8242084F839002068C16821F400516D
:10185000C160204600F0D4FF2068016921F4904166
:1018600001612068416921F02A0141612068C16855
:1018700041F40051C160E563202084F8390084F808
:101880003A00002070BD000030B585B000240094FF
:101890000194029403940068184988422CD1184896
:1018A000816941F480418161816901F48041049141
:1018B000816941F0040181618069124D00F00400EA
:1018C00004904FF4007000900220019003200390D8
:1018D00069462846FEF724FE2815CDE9000469462E
:1018E00028460294FEF71CFE002211462520FFF731
:1018F0004DFC2520FFF73CFC05B030BD0038014011
:10190000001002400008014070477047FEE70000E9
:101910000148FEF703BF00002800002010B5406A10
:1019200090F83D30426B00219162826B91620268B7
:10193000146824F4806414604185426B5163826BA7
:1019400051630268146824F00104146090F83D208B
:101950002024602A0BD0282232EA03030FD080F81B
:101960003D4080F83E1000BFFFF705F810BD80F83D
:101970003D4080F83E100164FEF7CEFE10BD0368C6
:101980001C6844F001041C6003681C6844F4806413
:101990001C60016380F83D20E6E7000070B5044656
:1019A00090F83D0094F83E10102906D1222804D169
:1019B00021680A6822F400620A60282131EA0002E4
:1019C0004FF000054FF0200626D021684968090530
:1019D00003D4602801D084F83D60256384F83E502C
:1019E00020684168090537D5416821F400614160EC
:1019F000606B384990F82120012A11D04163606B57
:101A0000FEF724FD38B32068016821F00101016070
:101A100084F83D60606B1CE0256384F83D10DFE7CF
:101A2000A06B4163A06BFEF711FDA0B12068416976
:101A3000C943490605D40069616A0870606A401CA0
:101A400060622068016821F00101016084F83D6056
:101A5000A06B416B884710E094F83D10602923D0BB
:101A60004169C943490605D40069616A0870606A22
:101A7000401C60622046FEF77EFF94F83D00216C1A
:101A8000490710D528280ED12068416821F4E0616B
:101A900041601148E062256384F83D6084F83E505F
:101AA0002046FFF723F870BD84F83D602564416946
:101AB000C943490605D40069616A0870606A401C20
:101AC00060622068016821F0010101602046FEF794
:101AD00023FED2E71D1900080000FFFF01684A69D4
:101AE000D24352050FD46FF480624A61002140F85E
:101AF000301F202242738173026942F004020261A6
:101B00000173012070470020704710B5C26A438DF1
:101B10000168042B06D0438D032B08D0438D022B84
:101B20001DD012E04A6822F480624A600CE04B68E3
:101B300023F480634B60042A06D0022A04D0016893
:101B40000A6822F480620A6001680969426A1170B9
:101B5000416A491C4162418D491E418510BD012ADF
:101B600030D0102A2ED0042A30D0022A2ED00A6873
:101B700042F400720A6001680969426A1170416AA0
:101B8000491C4162428D521E4285026812690A70E8
:101B9000416A491C4162418D491E418501684A687C
:101BA00022F440724A60202180F83D1090F83E20D7
:101BB0000021402A80F83E100CD012210163FEF76C
:101BC00096FF10BD0A6822F48062D3E70A6842F4E7
:101BD0008062CFE70163FFF729F910BD10B590F8D7
:101BE0003D10222914D1418D032912D901680969B8
:101BF000426A1170416A491C4162418D491E41850A
:101C0000418D032904D10068416821F4806141605D
:101C100010BDC26A022AFBD0012901D00029F7D1E8
:101C200001680A6822F480620A6001684A6822F446
:101C3000E0624A6001680969426A1170416A491CA0
:101C40004162418D491E4185202180F83D1090F868
:101C50003E200021402A80F83E1004D0122101636A
:101C6000FEF745FF10BD0163FFF7E0F810BD2DE959
:101C7000F84F0446C06A1E4692460D4621680A681F
:101C800042F480620A60082807D0012805D010F5C8
:101C9000803F02D0206B112804D12068016841F4F4
:101CA000807101604FF001185346002241462046E2
:101CB000009600F089FBF0BB206908F10109B0F53E
:101CC000804F0FD00620216800EAD51747F0F000BA
:101CD00008613346524608F10701204600F0A8FB90
:101CE00048BB03E0E8B240F001001BE02168E8B225
:101CF0000861334652464946204600F099FBD0B968
:101D00002068416981690091016841F48071016036
:101D10005346002241462046009600F055FB50B93C
:101D200047F0F10021680861334652464946204693
:101D300000F07EFB00E001E0002800D00120BDE8BB
:101D4000F88F0000F8B50446C06A1E460D461746D7
:101D5000082807D0012805D010F5803F02D0206B5D
:101D6000122804D12068016841F480710160134693
:101D700000224FF001112046009600F025FB08BB21
:101D80002069B0F5804F0ED00620216800EAD510FA
:101D900040F0F000086133463A460B49204600F017
:101DA00047FB78B902E005F0FE0000E0E8B22168E8
:101DB0000861054933463A46891F204600F038FB42
:101DC000002800D00120F8BD0800010010B5C26A4B
:101DD00090F83D1021290BD1418D51B1416A026823
:101DE00009781161416A491C4162418D491E418552
:101DF00010BD20230021082A13D0202A11D012F56B
:101E0000803F0ED00268546824F4E06454601122CC
:101E1000026380F83E1080F83D3000BFFEF768FE98
:101E200010BD0268546824F4E064546002681468C9
:101E300044F400741460016380F83D3090F83E2053
:101E400080F83E10402AE9D1FEF7F1FF10BD0000F6
:101E500010B590F83D1090F83E30C26A048D64B120
:101E6000212903D0402B21D122291FD1418DA1B39B
:101E700090F83E10402937D046E02129F2D12023A6
:101E80000021082A13D0202A11D012F5803F0ED04D
:101E90000268546824F4E06454601122026380F8FC
:101EA0003E1080F83D3000BFFEF722FE10BD0268F4
:101EB000546824F4E06454600268146844F40074C4
:101EC0001460016380F83D3090F83E2080F83E10A9
:101ED000402AE9D1FEF7ABFF10BDFFE7006841687B
:101EE00021F480614160F7E7016DC1B1016D012905
:101EF00022D0016D0229EFD190F83D10222923D084
:101F000090F83D102129E7D1416A026809781161F2
:101F1000416A491C4162418D491E4185DCE7C16C23
:101F20000129816C02D0C1F3072107E00268C9B220
:101F30001161016D891C05E0816CC9B202681161F3
:101F4000016D491C0165C7E70068016841F48071B3
:101F50000160C1E778B590F83E50C26A046B90F812
:101F60003D6000230168222E73D1066D0EB9402D0D
:101F70006FD0056D1DB90569B5F5404F1BD0458D76
:101F800095B3468D484D012E20D0448D022C4DD066
:101F90000C6844F480640C6001684C68240579D5B1
:101FA000AA4273D0012A71D0082A6FD0102A6DD0AE
:101FB000202A6BD06EE04A698A6900920A6842F46E
:101FC00080720A60016D491C016578BDAA4214D176
:101FD0000A6822F480620A6001684A68120504D522
:101FE0000A6822F4806217E0FFE74A698A69009272
:101FF0000A6842F400720A6050E0082A10D0202AD1
:102000000ED0122C0AD0042A03D0022A01D0102AA2
:10201000E6D10A6842F480620A603BE0012ADFD020
:102020000A6822F480620A600168DEE7042A11D09F
:10203000022A0FD0102A0DD00C6844F400640C6002
:1020400001684C698C6900940C6824F480640C600D
:1020500008E025E00C6844F480640C6001684C6979
:102060008969009101684C68240517D5AA4207D0F8
:10207000012A05D0082A03D0102A01D0202A0DD128
:102080004A6842F480524A6008E0FFE74A6842F436
:1020900080524A6001684A6989690091036578BD88
:1020A00048698869009078BD0000FFFF90F83E10F5
:1020B000402910D00169B1F5804F19D0016DB1B33D
:1020C000016D012910D1416C5FF0F10201F4407102
:1020D00042EAD11106E0016D0029416C05D0C9B278
:1020E00041F0010100680161704701F0FE01F9E76C
:1020F00090F83D102129416C07D0C9B241F001018F
:1021000002681161416B31B902E001F0FE01F7E7AD
:10211000826B002AE8D0896A19B9816B896A002923
:10212000E2D00068416841F4006141607047FFE718
:10213000416CF02201F44071CAE72DE9F84F0446E2
:10214000006889460B9D01689846174641F48061F6
:1021500001602068016841F48071016000954FF0D2
:10216000011A0022514620460A9B00F02DF9002852
:1021700053D1216809F0FE0008610AF1010B2B46DA
:10218000594620460A9A00F053F9F0BB206841698D
:10219000806900902A4620460A9900F0C7F940B1AC
:1021A000206C042839D12068016841F40071016075
:1021B00033E0FEB2B8F1010F09D02168380A086196
:1021C0002A4620460A9900F0B1F90028E8D1206893
:1021D00006612A4620460A9900F0A8F90028DFD1B6
:1021E0002068016841F48071016000950022514629
:1021F00020460A9B00F0E8F838B9216809F0FF0092
:1022000040F0010008612B4600E006E059462046F8
:102210000A9A00F00DF9002800D00120BDE8F88FDF
:10222000F8B590F83D6004460068416821F4E0612B
:1022300041602068002541690091016841F0010179
:1022400001602068016821F48061016020684168B4
:10225000090520D5474F222E48D02A2E46D0616B43
:10226000096849686185618D19B1216C41F00401EB
:102270002164416821F400614160606BFEF732F92E
:10228000012808D0606B4763606BFEF7DFF810B180
:10229000606B416B8847608D08B320684169C94312
:1022A000490708D40069616A0870606A401C60626E
:1022B000608D401E608520684169C943490608D485
:1022C0000069616A0870606A401C6062608D401E2F
:1022D0006085608D18B1206C40F004002064206C93
:1022E00000B32046BDE8F840FFF758BBA16B096872
:1022F00049686185618D19B1216C41F00401216447
:10230000416821F400614160A06BFEF7EBF8012801
:10231000C1D0A06B4763A06BFEF798F80028BAD035
:10232000A06BB6E72A2E06D12563282084F83D004D
:102330002046FEF7C3FE94F83D10202028290DD03A
:10234000216B222901D0222E07D1256384F83D007C
:1023500084F83E502046FEF7B1FEF8BD0649E16222
:10236000256384F83D0084F83E502046FEF7BEFB0E
:10237000F8BD00001D1900080000FFFF70B51646EB
:102380000D4604460DE02046FFF7A8FB08B10120EA
:1023900070BD681C05D0FEF7B9F9801BA84207D8AC
:1023A00035B120684069C0434007ECD4002070BDBF
:1023B000002044F8300F20216173A073216941F09F
:1023C000200121612073E2E72DE9F0471E46904687
:1023D0000D460446C1F30747DDF8209008E0701C65
:1023E00006D0FEF793F9A0EB0900B0420FD876B102
:1023F0002068012F18D0806925EA00000004000C35
:1024000014D000214145EAD00020BDE8F08700202B
:1024100044F8300F20216173A073216941F020013D
:10242000216120730120F0E74069E5E70121E9E738
:102430002DE9F0479A4691460E46044600254FF096
:102440002008C1F3074725E020684069C0434005E4
:1024500014D42068016841F40071016021686FF4B0
:1024600080604861256384F83D8084F83E50206C8C
:1024700040F00400206484F83C501FE0B9F1FF3FB5
:1024800008D0FEF743F9A0EB0A0149450CD8B9F191
:10249000000F09D02068012F13D0806926EA0000C0
:1024A0000004000C0BD0CFE744F8305F84F80D80B7
:1024B000A573206940F02000206125730120BDE84C
:1024C000F0874069EAE72DE9F041002590460E4685
:1024D0000446202717E04069C043C0060CD454F8D6
:1024E000301B6FF01000486144F810596777A577EA
:1024F000206A2062257717E0FEF708F9A0EB0800B4
:10250000B04208D83EB120684169C9434906E2D4C7
:102510000020BDE8F08144F8305F6773A57320693F
:1025200040F02000206125730120F2E770B51646C7
:102530000D4604460DE02046FFF7D0FA08B1012011
:1025400070BD681C05D0FEF7E1F8801BA84207D8D3
:1025500035B120684069C0430006ECD4002070BD4E
:10256000002044F8300F20216173A073216941F0ED
:10257000200121612073E2E710B54FF400410020F3
:1025800000F048F84FF48051022000F043F84BF679
:10259000C471012000F03EF8BDE8104048F201018E
:1025A0000B2000F037B800001FB56423022203A9F6
:1025B0008DE80E000246012380210548FEF738FC15
:1025C0009DF80D009DF80C1004B040EA012010BDEC
:1025D0002800002011B583B06424012303AA8021C0
:1025E0000B480094FEF78CFB032301AA80210848C6
:1025F0000094FEF77FFA9DF806009DF8051040EA6A
:1026000001209DF8041004B040EA0140000910BD0B
:10261000280000201CB503238DF80400080A8DF85B
:1026200005004FF4FA708DF80610009001AA802181
:102630000148FEF765FB1CBD2800002000B585B0F1
:102640000020029003901548816941F020018161CA
:10265000816901F020010491816941F004018161E7
:10266000816901F004010491816941F008018161EF
:102670008069694600F00800049020200090084816
:1026800001900848FDF74CFF002211461720FEF785
:102690007DFD1720FEF76CFD05B000BD0010024067
:1026A00000002110000C0140FEE7704770477047A2
:1026B000FEF706BD30B58FB028216846FDF749FD0D
:1026C00014210AA8FDF745FD01252804CDE9005095
:1026D000002407946846FEF777FE0F200A90CDE9A4
:1026E0000B540D9400210AA80E94FEF781FD0FB043
:1026F00030BD00000D48016841F0010101604168F2
:102700000B4A1140416001680A4A114001600168AA
:1027100021F480210160416821F4FE0141604FF401
:102720001F0181600449C003086070470010024027
:102730000000FFF8FFFFF6FE08ED00E010B5406A6C
:102740000021C185C184FEF7E3FF10BD0168CA689E
:1027500022F49072CA6001684A6922F001024A615B
:10276000202180F83A10704710B590F83A102229CD
:1027700001D0022010BD8168B1F5805F11D00169E0
:10278000002901681FD0496801F07F03816A4A1C53
:1027900082620B70C18D491E0904090CC18518D0D5
:1027A0002BE00269816A002A0268526805D0D2B221
:1027B0000A80816A491C8162ECE7C2F308020A8040
:1027C000816A891CF7E74A68816A4B1C83620A7038
:1027D000E0E70168CA6822F02002CA600168CA689E
:1027E00022F48072CA6001684A6922F001024A61DB
:1027F000202180F83A10FFF787F8002010BD000074
:102800002DE9F041044600680169E26821F4405175
:10281000114301612169A068084361690843216887
:10282000CA6841F20C639A430243CA602068416956
:10283000A26921F44071114341611E492068642559
:102840003226884202D1FEF779FD01E0FEF766FDEF
:1028500000EBC00101EB001160686FF01807800009
:10286000B1FBF0F2B2FBF5F2B1FBF0F37A4303EB0C
:102870008202B1FBF0F306EB0212B2FBF5F2B3FBFE
:10288000F5F302F0F00202EB0312B1FBF0F3B1FB3F
:10289000F0F0B0FBF5F0784303EB800006EB00109E
:1028A000B0FBF5F0216800F00F0010448860BDE82F
:1028B000F08100000038014090F83910212901D042
:1028C000022070478168B1F5805F016A0BD04A1C15
:1028D0000262026809785160C18C491E0904090C22
:1028E000C1840ED017E009880268C1F30801516065
:1028F00001690029016A02D0491C0162ECE7891CC8
:10290000FBE70168CA6822F08002CA600068C168FB
:1029100041F04001C1600020704700000148FEF70F
:10292000F9BE00007C000020FEE70907090E002820
:1029300004DB00F1E02080F80014704700F00F0085
:1029400000F1E02080F8141D704702E008C8121F53
:1029500008C1002AFAD170477047002001E001C188
:10296000121F002AFBD17047FEF7B2FBFFF7A2FE51
:10297000FFF764FE27482649002401602649C0E984
:1029800001144FF48041C0E9034144618461C46192
:102990000462FDF7F1FF1F482049543001604FF4F5
:1029A000E131C0E901140C21C460C0E90441846133
:1029B000C461FEF737FFFFF7DFFD194C0220FFF778
:1029C000F3FD20800B20FFF7EFFD00F00200FDF784
:1029D00054FC10F0FF4FE060F0D00720FFF7FAFD45
:1029E0002061FDF74FFC6FF00502FDF72FFCFDF7AE
:1029F00056FC60600520FFF7EDFD6061FDF742FCCD
:102A0000084A094BFDF7B0FBFDF749FCA060D5E78C
:102A10000054004028000020A0860100003801403A
:102A2000000000209A9999999999293F0000000087
:102A3000000000000102030406070809000000006E
:102A400001020304642A000800000020280000009E
:102A50004A2900088C2A0008280000209804000059
:102A60005A290008000000000000000000000000DB
:102A70000000000000000000000000000100000055
:0C2A800010000000000000000024F40022
:04000005080000ED02
:00000001FF
